{"abi":[{"type":"constructor","inputs":[{"name":"_platformWallet","type":"address","internalType":"address"},{"name":"_platformFeeBps","type":"uint256","internalType":"uint256"}],"stateMutability":"nonpayable"},{"type":"function","name":"owner","inputs":[],"outputs":[{"name":"","type":"address","internalType":"address"}],"stateMutability":"view"},{"type":"function","name":"platformFeeBps","inputs":[],"outputs":[{"name":"","type":"uint256","internalType":"uint256"}],"stateMutability":"view"},{"type":"function","name":"platformWallet","inputs":[],"outputs":[{"name":"","type":"address","internalType":"address"}],"stateMutability":"view"},{"type":"function","name":"renounceOwnership","inputs":[],"outputs":[],"stateMutability":"nonpayable"},{"type":"function","name":"setPlatformFee","inputs":[{"name":"_platformFeeBps","type":"uint256","internalType":"uint256"}],"outputs":[],"stateMutability":"nonpayable"},{"type":"function","name":"setPlatformWallet","inputs":[{"name":"_platformWallet","type":"address","internalType":"address"}],"outputs":[],"stateMutability":"nonpayable"},{"type":"function","name":"splitPayment","inputs":[{"name":"token","type":"address","internalType":"address"},{"name":"creator","type":"address","internalType":"address"},{"name":"amount","type":"uint256","internalType":"uint256"}],"outputs":[],"stateMutability":"nonpayable"},{"type":"function","name":"transferOwnership","inputs":[{"name":"newOwner","type":"address","internalType":"address"}],"outputs":[],"stateMutability":"nonpayable"},{"type":"event","name":"OwnershipTransferred","inputs":[{"name":"previousOwner","type":"address","indexed":true,"internalType":"address"},{"name":"newOwner","type":"address","indexed":true,"internalType":"address"}],"anonymous":false},{"type":"event","name":"PaymentProcessed","inputs":[{"name":"payer","type":"address","indexed":true,"internalType":"address"},{"name":"creator","type":"address","indexed":true,"internalType":"address"},{"name":"totalAmount","type":"uint256","indexed":false,"internalType":"uint256"},{"name":"platformFee","type":"uint256","indexed":false,"internalType":"uint256"}],"anonymous":false},{"type":"error","name":"OwnableInvalidOwner","inputs":[{"name":"owner","type":"address","internalType":"address"}]},{"type":"error","name":"OwnableUnauthorizedAccount","inputs":[{"name":"account","type":"address","internalType":"address"}]}],"bytecode":{"object":"0x608060405234801561000f575f80fd5b5060405161067438038061067483398101604081905261002e9161016d565b338061005457604051631e4fbdf760e01b81525f60048201526024015b60405180910390fd5b61005d8161011e565b506001600160a01b0382166100b45760405162461bcd60e51b815260206004820152601760248201527f496e76616c696420706c6174666f726d2077616c6c6574000000000000000000604482015260640161004b565b6127108111156100f55760405162461bcd60e51b815260206004820152600c60248201526b08ccaca40e8dede40d0d2ced60a31b604482015260640161004b565b600180546001600160a01b0319166001600160a01b0393909316929092179091556002556101a4565b5f80546001600160a01b038381166001600160a01b0319831681178455604051919092169283917f8be0079c531659141344cd1fd0a4f28419497f9722a3daafe3b4186f6b6457e09190a35050565b5f806040838503121561017e575f80fd5b82516001600160a01b0381168114610194575f80fd5b6020939093015192949293505050565b6104c3806101b15f395ff3fe608060405234801561000f575f80fd5b5060043610610085575f3560e01c80638831e9cf116100585780638831e9cf146100d55780638da5cb5b146100e8578063f2fde38b1461010c578063fa2af9da1461011f575f80fd5b806312e8e2c31461008957806322dcd13e1461009e578063715018a6146100ba5780637c17db6f146100c2575b5f80fd5b61009c610097366004610380565b610132565b005b6100a760025481565b6040519081526020015b60405180910390f35b61009c61013f565b61009c6100d03660046103b2565b610152565b61009c6100e33660046103eb565b610299565b5f546001600160a01b03165b6040516001600160a01b0390911681526020016100b1565b61009c61011a3660046103eb565b6102c3565b6001546100f4906001600160a01b031681565b61013a610305565b600255565b610147610305565b6101505f610331565b565b6001546002546001600160a01b038086169263a9059cbb929116906127109061017b908661041f565b610185919061043c565b6040516001600160e01b031960e085901b1681526001600160a01b03909216600483015260248201526044016020604051808303815f875af11580156101cd573d5f803e3d5ffd5b505050506040513d601f19601f820116820180604052508101906101f1919061045b565b50826001600160a01b031663a9059cbb8361271060025485610213919061041f565b61021d919061043c565b610227908561047a565b6040516001600160e01b031960e085901b1681526001600160a01b03909216600483015260248201526044016020604051808303815f875af115801561026f573d5f803e3d5ffd5b505050506040513d601f19601f82011682018060405250810190610293919061045b565b50505050565b6102a1610305565b600180546001600160a01b0319166001600160a01b0392909216919091179055565b6102cb610305565b6001600160a01b0381166102f957604051631e4fbdf760e01b81525f60048201526024015b60405180910390fd5b61030281610331565b50565b5f546001600160a01b031633146101505760405163118cdaa760e01b81523360048201526024016102f0565b5f80546001600160a01b038381166001600160a01b0319831681178455604051919092169283917f8be0079c531659141344cd1fd0a4f28419497f9722a3daafe3b4186f6b6457e09190a35050565b5f60208284031215610390575f80fd5b5035919050565b80356001600160a01b03811681146103ad575f80fd5b919050565b5f805f606084860312156103c4575f80fd5b6103cd84610397565b92506103db60208501610397565b9150604084013590509250925092565b5f602082840312156103fb575f80fd5b61040482610397565b9392505050565b634e487b7160e01b5f52601160045260245ffd5b80820281158282048414176104365761043661040b565b92915050565b5f8261045657634e487b7160e01b5f52601260045260245ffd5b500490565b5f6020828403121561046b575f80fd5b81518015158114610404575f80fd5b818103818111156104365761043661040b56fea264697066735822122033932949b24d0d3c6ef93cd082fe1d308e41b755416eeded4d07b4e33beaf02064736f6c63430008140033","linkReferences":{}},"methodIdentifiers":{"owner()":"8da5cb5b","platformFeeBps()":"22dcd13e","platformWallet()":"fa2af9da","renounceOwnership()":"715018a6","setPlatformFee(uint256)":"12e8e2c3","setPlatformWallet(address)":"8831e9cf","splitPayment(address,address,uint256)":"7c17db6f","transferOwnership(address)":"f2fde38b"},"id":26}